{
  "contractName": "LicensedMediaStore",
  "abi": [
    {
      "inputs": [
        {
          "name": "_creators",
          "type": "address[]"
        }
      ],
      "payable": false,
      "stateMutability": "nonpayable",
      "type": "constructor"
    },
    {
      "anonymous": false,
      "inputs": [
        {
          "indexed": false,
          "name": "media_id",
          "type": "uint256"
        },
        {
          "indexed": false,
          "name": "consumer",
          "type": "address"
        },
        {
          "indexed": false,
          "name": "isIndividual",
          "type": "bool"
        }
      ],
      "name": "media_item_bought",
      "type": "event"
    },
    {
      "anonymous": false,
      "inputs": [
        {
          "indexed": false,
          "name": "media_id",
          "type": "uint256"
        },
        {
          "indexed": false,
          "name": "consumer",
          "type": "address"
        },
        {
          "indexed": false,
          "name": "url",
          "type": "string"
        }
      ],
      "name": "media_delivery",
      "type": "event"
    },
    {
      "constant": true,
      "inputs": [
        {
          "name": "a",
          "type": "address"
        }
      ],
      "name": "isCreator",
      "outputs": [
        {
          "name": "",
          "type": "bool"
        }
      ],
      "payable": false,
      "stateMutability": "view",
      "type": "function"
    },
    {
      "constant": false,
      "inputs": [
        {
          "name": "_price_individual",
          "type": "uint256"
        },
        {
          "name": "_price_company",
          "type": "uint256"
        },
        {
          "name": "_creator",
          "type": "address"
        },
        {
          "name": "_description",
          "type": "string"
        },
        {
          "name": "_stakeholders",
          "type": "address[]"
        },
        {
          "name": "_shares",
          "type": "uint256[]"
        }
      ],
      "name": "addMedia",
      "outputs": [
        {
          "name": "",
          "type": "uint256"
        }
      ],
      "payable": false,
      "stateMutability": "nonpayable",
      "type": "function"
    },
    {
      "constant": false,
      "inputs": [
        {
          "name": "media_id",
          "type": "uint256"
        },
        {
          "name": "isIndividual",
          "type": "bool"
        }
      ],
      "name": "buyMedia",
      "outputs": [
        {
          "name": "",
          "type": "string"
        }
      ],
      "payable": true,
      "stateMutability": "payable",
      "type": "function"
    },
    {
      "constant": false,
      "inputs": [
        {
          "name": "consumer",
          "type": "address"
        },
        {
          "name": "media_id",
          "type": "uint256"
        },
        {
          "name": "url",
          "type": "string"
        },
        {
          "name": "isIndividual",
          "type": "bool"
        }
      ],
      "name": "addConsumer",
      "outputs": [],
      "payable": false,
      "stateMutability": "nonpayable",
      "type": "function"
    },
    {
      "constant": true,
      "inputs": [
        {
          "name": "media_id",
          "type": "uint256"
        }
      ],
      "name": "getMediaUrl",
      "outputs": [
        {
          "name": "",
          "type": "string"
        }
      ],
      "payable": false,
      "stateMutability": "view",
      "type": "function"
    },
    {
      "constant": true,
      "inputs": [
        {
          "name": "media_id",
          "type": "uint256"
        }
      ],
      "name": "media_info",
      "outputs": [
        {
          "name": "",
          "type": "uint256"
        },
        {
          "name": "",
          "type": "uint256"
        },
        {
          "name": "",
          "type": "uint256"
        },
        {
          "name": "",
          "type": "string"
        }
      ],
      "payable": false,
      "stateMutability": "view",
      "type": "function"
    },
    {
      "constant": true,
      "inputs": [],
      "name": "getNumMedia",
      "outputs": [
        {
          "name": "",
          "type": "uint256"
        }
      ],
      "payable": false,
      "stateMutability": "view",
      "type": "function"
    }
  ],
  "bytecode": "0x606060405234156200001057600080fd5b60405162001529380380620015298339810160405280805182019190505080600090805190602001906200004692919062000056565b506000600181905550506200012b565b828054828255906000526020600020908101928215620000d2579160200282015b82811115620000d15782518260006101000a81548173ffffffffffffffffffffffffffffffffffffffff021916908373ffffffffffffffffffffffffffffffffffffffff1602179055509160200191906001019062000077565b5b509050620000e19190620000e5565b5090565b6200012891905b808211156200012457600081816101000a81549073ffffffffffffffffffffffffffffffffffffffff021916905550600101620000ec565b5090565b90565b6113ee806200013b6000396000f300606060405260043610610083576000357c0100000000000000000000000000000000000000000000000000000000900463ffffffff16806317f86afc146100885780631b6cead8146101395780633cf332bf146101c957806354e7436c146101f2578063935575711461028e578063e237cf4a146103b0578063efd460651461044c575b600080fd5b341561009357600080fd5b6100a9600480803590602001909190505061049d565b6040518085815260200184815260200183815260200180602001828103825283818151815260200191508051906020019080838360005b838110156100fb5780820151818401526020810190506100e0565b50505050905090810190601f1680156101285780820380516001836020036101000a031916815260200191505b509550505050505060405180910390f35b341561014457600080fd5b6101c7600480803573ffffffffffffffffffffffffffffffffffffffff1690602001909190803590602001909190803590602001908201803590602001908080601f0160208091040260200160405190810160405280939291908181526020018383808284378201915050505050509190803515159060200190919050506105b0565b005b34156101d457600080fd5b6101dc6108b6565b6040518082815260200191505060405180910390f35b34156101fd57600080fd5b61021360048080359060200190919050506108c0565b6040518080602001828103825283818151815260200191508051906020019080838360005b83811015610253578082015181840152602081019050610238565b50505050905090810190601f1680156102805780820380516001836020036101000a031916815260200191505b509250505060405180910390f35b341561029957600080fd5b61039a600480803590602001909190803590602001909190803573ffffffffffffffffffffffffffffffffffffffff1690602001909190803590602001908201803590602001908080601f0160208091040260200160405190810160405280939291908181526020018383808284378201915050505050509190803590602001908201803590602001908080602002602001604051908101604052809392919081815260200183836020028082843782019150505050505091908035906020019082018035906020019080806020026020016040519081016040528093929190818152602001838360200280828437820191505050505050919050506109bb565b6040518082815260200191505060405180910390f35b6103d160048080359060200190919080351515906020019091905050610b6c565b6040518080602001828103825283818151815260200191508051906020019080838360005b838110156104115780820151818401526020810190506103f6565b50505050905090810190601f16801561043e5780820380516001836020036101000a031916815260200191505b509250505060405180910390f35b341561045757600080fd5b610483600480803573ffffffffffffffffffffffffffffffffffffffff16906020019091905050610f26565b604051808215151515815260200191505060405180910390f35b60008060006104aa61116f565b60026000868152602001908152602001600020600001546002600087815260200190815260200160002060010154600260008881526020019081526020016000206002015460026000898152602001908152602001600020600401808054600181600116156101000203166002900480601f01602080910402602001604051908101604052809291908181526020018280546001816001161561010002031660029004801561059a5780601f1061056f5761010080835404028352916020019161059a565b820191906000526020600020905b81548152906001019060200180831161057d57829003601f168201915b5050505050905093509350935093509193509193565b6002600084815260200190815260200160002060030160009054906101000a900473ffffffffffffffffffffffffffffffffffffffff1673ffffffffffffffffffffffffffffffffffffffff163373ffffffffffffffffffffffffffffffffffffffff1614151561062057600080fd5b816002600085815260200190815260200160002060070160008673ffffffffffffffffffffffffffffffffffffffff1673ffffffffffffffffffffffffffffffffffffffff1681526020019081526020016000209080519060200190610687929190611183565b508015610730576040805190810160405280600a81526020017f696e646976696475616c000000000000000000000000000000000000000000008152506002600085815260200190815260200160002060080160008673ffffffffffffffffffffffffffffffffffffffff1673ffffffffffffffffffffffffffffffffffffffff168152602001908152602001600020908051906020019061072a929190611183565b506107ce565b6040805190810160405280600781526020017f636f6d70616e79000000000000000000000000000000000000000000000000008152506002600085815260200190815260200160002060080160008673ffffffffffffffffffffffffffffffffffffffff1673ffffffffffffffffffffffffffffffffffffffff16815260200190815260200160002090805190602001906107cc929190611183565b505b7fca4704b9337417924f1123ad0d1c7255dd4318de55207c8f8042ce26b185b52f838584604051808481526020018373ffffffffffffffffffffffffffffffffffffffff1673ffffffffffffffffffffffffffffffffffffffff16815260200180602001828103825283818151815260200191508051906020019080838360005b8381101561086a57808201518184015260208101905061084f565b50505050905090810190601f1680156108975780820380516001836020036101000a031916815260200191505b5094505050505060405180910390a16108b08382610fca565b50505050565b6000600154905090565b6108c861116f565b6002600083815260200190815260200160002060070160003373ffffffffffffffffffffffffffffffffffffffff1673ffffffffffffffffffffffffffffffffffffffff1681526020019081526020016000208054600181600116156101000203166002900480601f0160208091040260200160405190810160405280929190818152602001828054600181600116156101000203166002900480156109af5780601f10610984576101008083540402835291602001916109af565b820191906000526020600020905b81548152906001019060200180831161099257829003601f168201915b50505050509050919050565b6000808573ffffffffffffffffffffffffffffffffffffffff163373ffffffffffffffffffffffffffffffffffffffff161415156109f857600080fd5b610a0186610f26565b1515610a0c57600080fd5b600160008154600101919050819055905082518451141515610a2d57600080fd5b6005845111151515610a3e57600080fd5b60e0604051908101604052808281526020018981526020018881526020018773ffffffffffffffffffffffffffffffffffffffff1681526020018681526020018581526020018481525060026000600154815260200190815260200160002060008201518160000155602082015181600101556040820151816002015560608201518160030160006101000a81548173ffffffffffffffffffffffffffffffffffffffff021916908373ffffffffffffffffffffffffffffffffffffffff1602179055506080820151816004019080519060200190610b1e929190611203565b5060a0820151816005019080519060200190610b3b929190611283565b5060c0820151816006019080519060200190610b5892919061130d565b509050506001549150509695505050505050565b610b7461116f565b600080600033925034915060026000878152602001908152602001600020905060006002600088815260200190815260200160002060070160003373ffffffffffffffffffffffffffffffffffffffff1673ffffffffffffffffffffffffffffffffffffffff168152602001908152602001600020805460018160011615610100020316600290049050141515610ca9578273ffffffffffffffffffffffffffffffffffffffff166108fc839081150290604051600060405180830381858888f193505050501515610c4557600080fd5b606060405190810160405280602a81526020017f596f75206861766520616c72656164792070757263686173656420746869732081526020017f6d65646961206974656d000000000000000000000000000000000000000000008152509350610f1d565b8415610d90578060010154821015610d38578273ffffffffffffffffffffffffffffffffffffffff166108fc839081150290604051600060405180830381858888f193505050501515610cfb57600080fd5b6040805190810160405280601481526020017f696e73756666696369656e74207061796d656e740000000000000000000000008152509350610f1d565b8060010154821115610d8b578273ffffffffffffffffffffffffffffffffffffffff166108fc826001015484039081150290604051600060405180830381858888f193505050501515610d8a57600080fd5b5b610e6d565b8060020154821015610e19578273ffffffffffffffffffffffffffffffffffffffff166108fc839081150290604051600060405180830381858888f193505050501515610ddc57600080fd5b6040805190810160405280601481526020017f696e73756666696369656e74207061796d656e740000000000000000000000008152509350610f1d565b8060020154821115610e6c578273ffffffffffffffffffffffffffffffffffffffff166108fc826002015484039081150290604051600060405180830381858888f193505050501515610e6b57600080fd5b5b5b7fc94a439293c716e601bb02f083e6e9f9af771465ea6a4ceadf0fa5be082371e0863387604051808481526020018373ffffffffffffffffffffffffffffffffffffffff1673ffffffffffffffffffffffffffffffffffffffff16815260200182151515158152602001935050505060405180910390a16040805190810160405280601d81526020017f7061796d6e6574207265636965766564207375636365737366756c6c7900000081525093505b50505092915050565b600080600090505b600080549050811015610fbf57600081815481101515610f4a57fe5b906000526020600020900160009054906101000a900473ffffffffffffffffffffffffffffffffffffffff1673ffffffffffffffffffffffffffffffffffffffff168373ffffffffffffffffffffffffffffffffffffffff161415610fb25760019150610fc4565b8080600101915050610f2e565b600091505b50919050565b60008060008060008094508515610ff95760026000888152602001908152602001600020600101549450611013565b600260008881526020019081526020016000206001015494505b6002600088815260200190815260200160002060050180549050935060009250600091505b8382101561108057600260008881526020019081526020016000206006018281548110151561106357fe5b906000526020600020900154830192508180600101925050611038565b600091505b83821015611166578285600260008a8152602001908152602001600020600601848154811015156110b257fe5b906000526020600020900154028115156110c857fe5b04905060026000888152602001908152602001600020600501828154811015156110ee57fe5b906000526020600020900160009054906101000a900473ffffffffffffffffffffffffffffffffffffffff1673ffffffffffffffffffffffffffffffffffffffff166108fc829081150290604051600060405180830381858888f19350505050151561115957600080fd5b8180600101925050611085565b50505050505050565b602060405190810160405280600081525090565b828054600181600116156101000203166002900490600052602060002090601f016020900481019282601f106111c457805160ff19168380011785556111f2565b828001600101855582156111f2579182015b828111156111f15782518255916020019190600101906111d6565b5b5090506111ff919061135a565b5090565b828054600181600116156101000203166002900490600052602060002090601f016020900481019282601f1061124457805160ff1916838001178555611272565b82800160010185558215611272579182015b82811115611271578251825591602001919060010190611256565b5b50905061127f919061135a565b5090565b8280548282559060005260206000209081019282156112fc579160200282015b828111156112fb5782518260006101000a81548173ffffffffffffffffffffffffffffffffffffffff021916908373ffffffffffffffffffffffffffffffffffffffff160217905550916020019190600101906112a3565b5b509050611309919061137f565b5090565b828054828255906000526020600020908101928215611349579160200282015b8281111561134857825182559160200191906001019061132d565b5b509050611356919061135a565b5090565b61137c91905b80821115611378576000816000905550600101611360565b5090565b90565b6113bf91905b808211156113bb57600081816101000a81549073ffffffffffffffffffffffffffffffffffffffff021916905550600101611385565b5090565b905600a165627a7a72305820f45173876125ff69daf6fee83aef21110af7562b014493a4a2c7b781215760870029",
  "source": "pragma solidity ^0.4.0;\n\ncontract LicensedMediaStore{\n    struct Media{\n        uint256 media_id;\n        uint256 price_individual;\n        uint256 price_company;\n        address creator;\n        string description;\n        address[] stakeholders;\n        uint256[] shares;\n        mapping(address => string) consumers2url;\n        mapping(address => string) consumer_type;\n    }\n    \n    address[] creators;\n    uint numMedia;\n    mapping (uint => Media) collection;\n    \n    function LicensedMediaStore(address[] _creators) public {\n        creators = _creators;\n        numMedia = 0;\n    }\n    \n    function isCreator(address a) public view returns (bool){\n        for(uint idx = 0; idx < creators.length; idx++){\n            if(a == creators[idx])return true;\n        }\n        return false;\n    }\n    \n    function addMedia(uint256 _price_individual, uint256 _price_company, address _creator, string _description, address[] _stakeholders, uint256[] _shares) public returns (uint256) {\n        // do necessary checks\n        require(msg.sender == _creator);\n        require(isCreator(_creator));\n        \n        uint256 media_id = ++numMedia;\n        require(_stakeholders.length == _shares.length);\n        require(_stakeholders.length <= 5);\n        collection[numMedia] = Media(media_id, _price_individual, _price_company, _creator, _description, _stakeholders, _shares);\n        return numMedia;\n    }\n    \n    event media_item_bought(\n        uint256 media_id,\n        address consumer,\n        bool isIndividual\n    );\n    \n    function buyMedia(uint256 media_id, bool isIndividual) payable public returns (string){\n        address buyer = msg.sender;\n        uint amt_recieved = msg.value;\n        Media storage media = collection[media_id];\n        //check if user has already bought\n        if(bytes(collection[media_id].consumers2url[msg.sender]).length != 0){\n            buyer.transfer(amt_recieved);\n            return \"You have already purchased this media item\";\n        }\n        //check if user has sufficient balance\n        if(isIndividual){\n            if(amt_recieved < media.price_individual){\n                buyer.transfer(amt_recieved);\n                return 'insufficient payment';\n            }\n            else if(amt_recieved > media.price_individual){\n                buyer.transfer(amt_recieved - media.price_individual);\n            }\n        }else{\n            if(amt_recieved < media.price_company){\n                buyer.transfer(amt_recieved);\n                return 'insufficient payment';\n            }\n            else if(amt_recieved > media.price_company){\n                buyer.transfer(amt_recieved - media.price_company);\n            }\n        }\n        emit media_item_bought(media_id, msg.sender, isIndividual);\n        return 'paymnet recieved successfully';\n    }\n    \n    event media_delivery(\n        uint256 media_id,\n        address consumer,\n        string url\n    );\n    \n    function addConsumer(address consumer, uint256 media_id, string url, bool isIndividual) public{\n        //check that caller is indeed the creator of media\n        require(msg.sender == collection[media_id].creator);\n        \n        collection[media_id].consumers2url[consumer] = url;\n        if(isIndividual)collection[media_id].consumer_type[consumer] = 'individual';\n        else collection[media_id].consumer_type[consumer] = 'company';\n        emit media_delivery(media_id, consumer, url);\n        \n        distribute_payment(media_id, isIndividual);\n    }\n    \n    function distribute_payment(uint256 media_id, bool isIndividual) private{\n        uint256 payment = 0;\n        if(isIndividual)payment = collection[media_id].price_individual;\n        else payment = collection[media_id].price_individual;\n        \n        uint256 numPies = collection[media_id].stakeholders.length;\n        uint256 total = 0;\n        for(uint it = 0; it < numPies; it++){\n            total += collection[media_id].shares[it];\n        }\n        for(it = 0; it < numPies; it++){\n            uint256 pie = collection[media_id].shares[it] * payment / total;\n            collection[media_id].stakeholders[it].transfer(pie);\n        }\n    }\n    \n    function getMediaUrl(uint256 media_id) public view returns (string){\n        return collection[media_id].consumers2url[msg.sender];\n    }\n    \n    function media_info(uint256 media_id) public view returns(uint256, uint256, uint256, string){\n        return (collection[media_id].media_id, collection[media_id].price_individual, collection[media_id].price_company, collection[media_id].description);\n    }\n    \n    function getNumMedia() public view returns(uint256) {\n        return numMedia;\n    }\n}\n",
  "sourcePath": "/Users/sahil/Documents/LicensedMediaStore/contracts/LicensedMediaStore.sol",
  "compiler": {
    "name": "solc",
    "version": "0.4.21+commit.dfe3193c.Emscripten.clang"
  },
  "schemaVersion": "2.0.0",
  "updatedAt": "2018-04-19T07:34:27.495Z"
}